:020000040800F2
:1000000000000220C1AE0008398D0008418D0008B3
:10001000498D0008518D0008598D0008000000002E
:10002000000000000000000000000000757C0008D7
:10003000618D000800000000317C0008617B000831
:1000400011AF000811AF000811AF000811AF000890
:1000500011AF000811AF000811AF000811AF000880
:1000600011AF000811AF000811AF00086F8D000834
:1000700011AF000811AF000811AF000811AF000860
:1000800011AF000811AF000811AF000811AF000850
:1000900011AF000811AF000811AF000811AF000840
:1000A00011AF000811AF000811AF000811AF000830
:1000B0007D8D000811AF000811AF000811AF0008D6
:1000C00011AF000811AF000811AF000811AF000810
:1000D00011AF000811AF000811AF000811AF000800
:1000E000918D000811AF000811AF000811AF000892
:1000F00011AF000811AF000811AF000811AF0008E0
:1001000011AF000811AF000811AF000811AF0008CF
:1001100011AF000811AF000811AF000811AF0008BF
:1001200011AF000811AF000811AF000811AF0008AF
:1001300011AF000811AF000811AF000811AF00089F
:1001400011AF000811AF000811AF000811AF00088F
:1001500011AF000811AF000811AF000811AF00087F
:1001600011AF000811AF000811AF000811AF00086F
:1001700011AF000811AF000811AF000811AF00085F
:1001800011AF000811AF000811AF000811AF00084F
:1001900011AF00080000000011AF000811AF000807
:1001A00011AF000811AF000811AF0008B128000816
:1001B00011AF000811AF000811AF000811AF00081F
:1001C00011AF000811AF000811AF000811AF00080F
:0801D00011AF000811AF000897
:1001D80081F0004102E000BF83F0004330B54FEAF0
:1001E80041044FEA430594EA050F08BF90EA020F5D
:1001F8001FBF54EA000C55EA020C7FEA645C7FEAF0
:10020800655C00F0E2804FEA5454D4EB5555B8BF12
:100218006D420CDD2C4480EA020281EA030382EA83
:10022800000083EA010180EA020281EA0303362D15
:1002380088BF30BD11F0004F4FEA01314FF4801CE8
:100248004CEA113102D0404261EB410113F0004FFA
:100258004FEA03334CEA133302D0524263EB4303B1
:1002680094EA050F00F0A780A4F10104D5F1200E4F
:100278000DDB02FA0EFC22FA05F2801841F10001AA
:1002880003FA0EF2801843FA05F359410EE0A5F17E
:1002980020050EF1200E012A03FA0EFC28BF4CF0AF
:1002A800020C43FA05F3C01851EBE37101F0004565
:1002B80007D54FF0000EDCF1000C7EEB00006EEB72
:1002C8000101B1F5801F1BD3B1F5001F0CD34908FC
:1002D8005FEA30004FEA3C0C04F101044FEA445253
:1002E80012F5800F80F09A80BCF1004F08BF5FEADA
:1002F800500C50F1000041EB045141EA050130BDBA
:100308005FEA4C0C404141EB0101013C28BFB1F5CB
:10031800801FE9D291F0000F04BF01460020B1FA16
:1003280081F308BF2033A3F10B03B3F120020CDAE9
:100338000C3208DD02F1140CC2F10C0201FA0CF0C7
:1003480021FA02F10CE002F11402D8BFC2F1200C2C
:1003580001FA02F120FA0CFCDCBF41EA0C019040E2
:10036800E41AA2BF01EB0451294330BD6FEA04042B
:100378001F3C1CDA0C340EDC04F11404C4F1200216
:1003880020FA04F001FA02F340EA030021FA04F328
:1003980045EA030130BDC4F10C04C4F1200220FA7F
:1003A80002F001FA04F340EA0300294630BD21FABD
:1003B80004F0294630BD94F0000F83F4801306BF83
:1003C80081F480110134013D4EE77FEA645C18BF77
:1003D8007FEA655C29D094EA050F08BF90EA020F0E
:1003E80005D054EA000C04BF1946104630BD91EA06
:1003F800030F1EBF0021002030BD5FEA545C05D109
:100408004000494128BF41F0004130BD14F5800447
:100418003CBF01F5801130BD01F0004545F0FE41BB
:1004280041F470014FF0000030BD7FEA645C1ABFF0
:10043800194610467FEA655C1CBF0B46024650EA27
:10044800013406BF52EA033591EA030F41F4002153
:1004580030BD00BF90F0000F04BF0021704730B5D9
:100468004FF4806404F132044FF000054FF00001AE
:1004780050E700BF90F0000F04BF0021704730B56F
:100488004FF4806404F1320410F0004548BF404244
:100498004FF000013EE700BF42004FEAE2014FEA99
:1004A80031014FEA02701FBF12F07F4393F07F4F74
:1004B80081F06051704732F07F4208BF704793F077
:1004C8007F4F04BF41F40021704730B54FF460748A
:1004D80001F0004521F000411CE700BF50EA01028D
:1004E80008BF704730B54FF000050AE050EA010236
:1004F80008BF704730B511F0004502D5404261EBA6
:1005080041014FF4806404F132045FEA915C3FF4E6
:10051800D8AE4FF003025FEADC0C18BF03325FEA83
:10052800DC0C18BF033202EBDC02C2F1200300FA34
:1005380003FC20FA02F001FA03FE40EA0E0021FA59
:1005480002F11444BDE600BF70B54FF0FF0C4CF447
:10055800E06C1CEA11541DBF1CEA135594EA0C0FF9
:1005680095EA0C0F00F0DEF82C4481EA030621EA34
:100578004C5123EA4C5350EA013518BF52EA03356F
:1005880041F4801143F4801338D0A0FB02CE4FF021
:100598000005E1FB02E506F00042E0FB03E54FF051
:1005A8000006E1FB03569CF0000F18BF4EF0010E49
:1005B800A4F1FF04B6F5007F64F5407404D25FEA45
:1005C8004E0E6D4146EB060642EAC62141EA5551F8
:1005D8004FEAC52040EA5E504FEACE2EB4F1FD0C3A
:1005E80088BFBCF5E06F1ED8BEF1004F08BF5FEAB8
:1005F800500E50F1000041EB045170BD06F000466A
:1006080046EA010140EA020081EA0301B4EB5C0416
:10061800C2BFD4EB0C0541EA045170BD41F480110E
:100628004FF0000E013C00F3AB8014F1360FDEBF33
:10063800002001F0004170BDC4F10004203C35DA0F
:100648000C341BDC04F11404C4F1200500FA05F392
:1006580020FA04F001FA05F240EA020001F0004233
:1006680021F0004110EBD37021FA04F642EB0601A9
:100678005EEA430E08BF20EAD37070BDC4F10C04D3
:10068800C4F1200500FA04F320FA05F001FA04F297
:1006980040EA020001F0004110EBD37041F1000183
:1006A8005EEA430E08BF20EAD37070BDC4F120058E
:1006B80000FA05F24EEA020E20FA04F301FA05F2F6
:1006C80043EA020321FA04F001F0004121FA04F29E
:1006D80020EA020000EBD3705EEA430E08BF20EA6E
:1006E800D37070BD94F0000F0FD101F000464000A8
:1006F80041EB010111F4801F08BF013CF7D041EA2A
:10070800060195F0000F18BF704703F0004652002D
:1007180043EB030313F4801F08BF013DF7D043EAFE
:100728000603704794EA0C0F0CEA135518BF95EAB4
:100738000C0F0CD050EA410618BF52EA4306D1D13B
:1007480081EA030101F000414FF0000070BD50EA5A
:10075800410606BF1046194652EA430619D094EAE4
:100768000C0F02D150EA013613D195EA0C0F05D1CE
:1007780052EA03361CBF104619460AD181EA030122
:1007880001F0004141F0FE4141F470014FF00000DA
:1007980070BD41F0FE4141F4780170BD70B54FF075
:1007A800FF0C4CF4E06C1CEA11541DBF1CEA1355F5
:1007B80094EA0C0F95EA0C0F00F0A7F8A4EB0504D7
:1007C80081EA030E52EA03354FEA013100F08880CE
:1007D8004FEA03334FF0805545EA131343EA126397
:1007E8004FEA022245EA111545EA10654FEA00264C
:1007F8000EF000419D4208BF964244F1FD0404F505
:10080800407402D25B084FEA3202B61A65EB030560
:100818005B084FEA32024FF480104FF4002CB6EB1D
:10082800020E75EB030E22BFB61A754640EA0C009D
:100838005B084FEA3202B6EB020E75EB030E22BFDD
:10084800B61A754640EA5C005B084FEA3202B6EB1E
:10085800020E75EB030E22BFB61A754640EA9C00DD
:100868005B084FEA3202B6EB020E75EB030E22BFAD
:10087800B61A754640EADC0055EA060E18D04FEA6B
:10088800051545EA16754FEA06164FEAC30343EA0B
:1008980052734FEAC2025FEA1C1CC0D111F4801FD8
:1008A8000BD141EA00014FF000004FF0004CB6E7D1
:1008B80011F4801F04BF01430020B4F1FD0C88BF70
:1008C800BCF5E06F3FF6AFAEB5EB030C04BFB6EB7B
:1008D800020C5FEA500C50F1000041EB045170BD6E
:1008E8000EF0004E4EEA113114EB5C04C2BFD4EB9B
:1008F8000C0541EA045170BD41F480114FF0000E1F
:10090800013C90E645EA060E8DE60CEA135594EA9A
:100918000C0F08BF95EA0C0F3FF43BAF94EA0C0F9D
:100928000AD150EA01347FF434AF95EA0C0F7FF412
:1009380025AF104619462CE795EA0C0F06D152EA66
:1009480003353FF4FDAE1046194622E750EA41064A
:1009580018BF52EA43067FF4C5AE50EA41047FF45B
:100968000DAF52EA43057FF4EBAE12E74FF0FF3CC0
:1009780006E000BF4FF0010C02E000BF4FF0010C91
:100988004DF804CD4FEA410C7FEA6C5C4FEA430C0A
:1009980018BF7FEA6C5C1BD001B050EA410C0CBF59
:1009A80052EA430C91EA030F02BF90EA020F0020BB
:1009B800704710F1000F91EA030F58BF994208BF22
:1009C80090422CBFD8176FEAE37040F001007047DF
:1009D8004FEA410C7FEA6C5C02D150EA013C07D136
:1009E8004FEA430C7FEA6C5CD6D152EA033CD3D081
:1009F8005DF8040B704700BF8446104662468C467B
:100A08001946634600E000BF01B5FFF7B7FF0028AD
:100A180048BF10F1000F01BD4DF808EDFFF7F4FFD6
:100A28000CBF012000205DF808FB00BF4DF808ED61
:100A3800FFF7EAFF34BF012000205DF808FB00BF84
:100A48004DF808EDFFF7E0FF94BF012000205DF8A6
:100A580008FB00BF4DF808EDFFF7CEFF94BF01205B
:100A680000205DF808FB00BF4DF808EDFFF7C4FF54
:100A780034BF012000205DF808FB00BF4FEA4102A7
:100A880012F5001215D211D56FF47873B3EB6252D8
:100A980012D94FEAC12343F0004343EA505311F0FF
:100AA800004F23FA02F018BF404270474FF0000091
:100AB800704750EA013005D111F0004008BF6FF0CF
:100AC800004070474FF00000704700BF4A0011D245
:100AD80012F5001211D20DD56FF47873B3EB625290
:100AE8000ED44FEAC12343F0004343EA505323FA9C
:100AF80002F070474FF00000704750EA013002D111
:100B08004FF0FF3070474FF0000070474FEA410246
:100B1800B2F1E04324BFB3F5001CDCF1FE5C0DD953
:100B280001F0004C4FEAC0024CEA5070B2F1004F9D
:100B380040EB830008BF20F00100704711F0804FA0
:100B480021D113F13872BCBF01F00040704741F465
:100B580080114FEA5252C2F11802C2F1200C10FA69
:100B68000CF320FA02F018BF40F001004FEAC1234D
:100B78004FEAD32303FA0CFC40EA0C0023FA02F3F1
:100B88004FEA4303CCE77FEA625307D150EA0133C7
:100B98001EBF4FF0FE4040F44000704701F0004097
:100BA80040F0FE4040F40000704700BF53B94AB916
:100BB800002908BF00281CBF4FF0FF314FF0FF305D
:100BC80000F00CB8ADF1080C6DE904CE0AF020FA7B
:100BD800DDF804E0DDE9022304B07047704700BF88
:100BE800034613F8012B002AFBD1181A0138704765
:100BF8000348044B834202D0034B03B118477047A4
:100C08005C0000205C000020000000000548064B46
:100C18001B1AD90F01EBA301491002D0034B03B1F2
:100C2800184770475C0000205C00002000000000AE
:100C380010B5064C237843B9FFF7DAFF044B13B11C
:100C48000448AFF300800123237010BD600000202A
:100C580000000000B0B5000808B5054B1BB10549F8
:100C68000548AFF30080BDE80840FFF7CFBF00BFDD
:100C78000000000064000020B0B5000880B485B012
:100C880000AF78607B681B6803F06003FB60FB685B
:100C9800002B04D17B681B6803F01003FB60FB6822
:100CA80018461437BD465DF8047B704780B483B09E
:100CB80000AF78607B681B6B18460C37BD465DF843
:100CC800047B704780B483B000AF786039607B687C
:100CD8001A6A3B681A437B681A6200BF0C37BD4624
:100CE8005DF8047B704780B483B000AF78603960EA
:100CF8007B681A6A3B68DB431A407B681A6200BF4C
:100D08000C37BD465DF8047B704780B483B000AFF4
:100D180078607B685B6C43F400427B685A6400BF70
:100D28000C37BD465DF8047B704780B483B000AFD4
:100D380078607B68DB6843F001027B68DA6000BF9B
:100D48000C37BD465DF8047B704780B483B000AFB4
:100D580078607B68DB6823F001027B68DA6000BF9B
:100D68000C37BD465DF8047B704780B483B000AF94
:100D780078607B68DB6803F00103012B01D1012354
:100D880000E0002318460C37BD465DF8047B704729
:100D980080B483B000AF78607B68DB6843F0020200
:100DA8007B68DA6000BF0C37BD465DF8047B70478E
:100DB80080B483B000AF78607B68DB6823F0020200
:100DC8007B68DA6000BF0C37BD465DF8047B70476E
:100DD80080B483B000AF78607B68DB6803F00203FF
:100DE800022B01D1012300E0002318460C37BD4631
:100DF8005DF8047B704780B483B000AF78607B688F
:100E0800DB6843F004027B68DA6000BF0C37BD463C
:100E18005DF8047B704780B483B000AF78607B686E
:100E2800DB6823F004027B68DA6000BF0C37BD463C
:100E38005DF8047B704780B483B000AF78607B684E
:100E4800DB6803F00403042B01D1012300E0002335
:100E580018460C37BD465DF8047B704780B483B0F4
:100E680000AF78607B68DB6843F008027B68DA6073
:100E780000BF0C37BD465DF8047B704780B483B073
:100E880000AF78607B68DB6823F008027B68DA6073
:100E980000BF0C37BD465DF8047B704780B483B053
:100EA80000AF78607B68DB6803F00803082B01D18A
:100EB800012300E0002318460C37BD465DF8047B8B
:100EC800704780B483B000AF78607B68DB6843F01C
:100ED80010027B68DA6000BF0C37BD465DF8047B02
:100EE800704780B483B000AF78607B68DB6823F01C
:100EF80010027B68DA6000BF0C37BD465DF8047BE2
:100F0800704780B483B000AF78607B68DB6803F01B
:100F18001003102B01D1012300E0002318460C37E1
:100F2800BD465DF8047B704780B483B000AF78603D
:100F38007B68DB6843F020027B68DA6000BF0C370F
:100F4800BD465DF8047B704780B483B000AF78601D
:100F58007B68DB6823F020027B68DA6000BF0C370F
:100F6800BD465DF8047B704780B483B000AF7860FD
:100F78007B68DB6803F02003202B01D1012300E00C
:100F8800002318460C37BD465DF8047B704780B4D3
:100F980083B000AF78607B68DB6843F040027B6811
:100FA800DA6000BF0C37BD465DF8047B704780B43B
:100FB80083B000AF78607B68DB6823F040027B6811
:100FC800DA6000BF0C37BD465DF8047B704780B41B
:100FD80083B000AF78607B68DB6803F04003402B88
:100FE80001D1012300E0002318460C37BD465DF807
:100FF800047B704780B483B000AF78607B68DB689F
:1010080043F080027B68DA6000BF0C37BD465DF8AC
:10101800047B704780B483B000AF78607B68DB687E
:1010280023F080027B68DA6000BF0C37BD465DF8AC
:10103800047B704780B483B000AF78607B68DB685E
:1010480003F08003802B01D1012300E00023184620
:101058000C37BD465DF8047B704780B483B000AFA1
:1010680078607B68DB6843F400027B68DA6000BF65
:101078000C37BD465DF8047B704780B483B000AF81
:1010880078607B68DB6823F400027B68DA6000BF65
:101098000C37BD465DF8047B704780B483B000AF61
:1010A80078607B68DB6803F40003B3F5000F01D1B7
:1010B800012300E0002318460C37BD465DF8047B89
:1010C800704780B483B000AF78607B68DB6843F416
:1010D80080027B68DA6000BF0C37BD465DF8047B90
:1010E800704780B483B000AF78607B68DB6823F416
:1010F80080027B68DA6000BF0C37BD465DF8047B70
:10110800704780B483B000AF78607B68DB6803F415
:101118008003B3F5800F01D1012300E000231846B6
:101128000C37BD465DF8047B704780B483B000AFD0
:1011380078607B68DB6843F400127B68DA6000BF84
:101148000C37BD465DF8047B704780B483B000AFB0
:1011580078607B68DB6823F400127B68DA6000BF84
:101168000C37BD465DF8047B704780B483B000AF90
:1011780078607B68DB6803F40013B3F5001F01D1C6
:10118800012300E0002318460C37BD465DF8047BB8
:10119800704780B483B000AF78607B68DB6843F445
:1011A80080127B68DA6000BF0C37BD465DF8047BAF
:1011B800704780B483B000AF78607B68DB6823F445
:1011C80080127B68DA6000BF0C37BD465DF8047B8F
:1011D800704780B483B000AF78607B68DB6803F445
:1011E8008013B3F5801F01D1012300E000231846C6
:1011F8000C37BD465DF8047B704780B582B000AF00
:1012080078600B467B807B8803F00103002B0CD0B1
:101218007B681B681846FFF7DAFE0346012B04D0EB
:101228007B681B681846FFF7B2FE7B8803F0020351
:10123800002B0CD07B681B681846FFF7C9FD0346D6
:10124800012B04D07B681B681846FFF7A1FD7B883B
:1012580003F00403002B0CD07B681B681846FFF7CB
:10126800EAFD0346012B04D07B681B681846FFF78C
:10127800C2FD7B8803F00803002B0CD07B681B6839
:101288001846FFF70BFE0346012B04D07B681B684A
:101298001846FFF7E3FD7B8803F01003002B0CD002
:1012A8007B681B681846FFF72CFE0346012B04D009
:1012B8007B681B681846FFF704FE7B8803F0200351
:1012C800002B0CD07B681B681846FFF74EFD0346C1
:1012D800012B04D07B681B681846FFF726FD7B8826
:1012E80003F04003002B0CD07B681B681846FFF7FF
:1012F800A1FE0346012B04D07B681B681846FFF744
:1013080079FE7B8803F08003002B0CD07B681B6878
:101318001846FFF729FE0346012B04D07B681B689B
:101328001846FFF701FE7B8803F48073002B0CD06E
:101338007B681B681846FFF74CFF0346012B04D057
:101348007B681B681846FFF724FF7B8803F400734B
:10135800002B0CD07B681B681846FFF706FF034676
:10136800012B04D07B681B681846FFF7DEFE7B88DC
:1013780003F48063002B0CD07B681B681846FFF7CA
:101388008CFE0346012B04D07B681B681846FFF7C8
:1013980064FE7B8803F40063002B0CD07B681B6819
:1013A8001846FFF7AEFE0346012B04D07B681B6886
:1013B8001846FFF786FE00BF0837BD4680BD80B5DA
:1013C80082B000AF78600B467B807B8803F0010316
:1013D800002B0CD07B681B681846FFF7F8FD034606
:1013E800012B04D17B681B681846FFF7E0FD7B885A
:1013F80003F00203002B0CD07B681B681846FFF72C
:10140800E7FC0346012B04D17B681B681846FFF7ED
:10141800CFFC7B8803F00403002B0CD07B681B688F
:101428001846FFF708FD0346012B04D17B681B68AB
:101438001846FFF7F0FC7B8803F00803002B0CD05C
:101448007B681B681846FFF729FD0346012B04D16A
:101458007B681B681846FFF711FD7B8803F01003B3
:10146800002B0CD07B681B681846FFF74AFD034623
:10147800012B04D17B681B681846FFF732FD7B8877
:1014880003F02003002B0CD07B681B681846FFF77D
:101498006CFC0346012B04D07B681B681846FFF7D9
:1014A80054FC7B8803F04003002B0CD07B681B683E
:1014B8001846FFF7BFFD0346012B04D17B681B6864
:1014C8001846FFF7A7FD7B8803F08003002B0CD09C
:1014D8007B681B681846FFF747FD0346012B04D1BC
:1014E8007B681B681846FFF72FFD7B8803F4807321
:1014F800002B0CD07B681B681846FFF76AFE034672
:10150800012B04D17B681B681846FFF752FE7B88C5
:1015180003F40073002B0CD07B681B681846FFF798
:1015280024FE0346012B04D17B681B681846FFF78D
:101538000CFE7B8803F48063002B0CD07B681B684F
:101548001846FFF7AAFD0346012B04D17B681B68E8
:101558001846FFF792FD7B8803F40063002B0CD03C
:101568007B681B681846FFF7CCFD0346012B04D1A6
:101578007B681B681846FFF7B4FD00BF0837BD46F7
:1015880080BD000080B582B000AF78600B46FB706C
:10159800FB78022B06D17B681B6801211846FFF7F0
:1015A80091FB36E07B681B681C4A934218D07B6825
:1015B8001B681B4A934213D07B681B68194A9342E5
:1015C8000ED07B681B68184A934209D07B681B6859
:1015D800164A934204D07B681B68154A934218D177
:1015E800FB78032B06D17B681B6804211846FFF79C
:1015F80069FB0EE0FB78042B0BD17B681B6801218B
:101608001846FFF75FFB7B681B6804211846FFF745
:1016180059FB00BF0837BD4680BD00BF002C014004
:1016280000340140004001400044014000480140AE
:101638000050014080B582B000AF78600B46FB7067
:10164800FB78022B06D17B681B6801211846FFF73F
:101658004AFB36E07B681B681C4A934218D07B68BB
:101668001B681B4A934213D07B681B68194A934234
:101678000ED07B681B68184A934209D07B681B68A8
:10168800164A934204D07B681B68154A934218D1C6
:10169800FB78032B06D17B681B6804211846FFF7EB
:1016A80022FB0EE0FB78042B0BD17B681B68012121
:1016B8001846FFF718FB7B681B6804211846FFF7DC
:1016C80012FB00BF0837BD4680BD00BF002C01409B
:1016D80000340140004001400044014000480140FE
:1016E8000050014080B582B000AF78600B46FB70B7
:1016F800FB78022B06D17B681B6810211846FFF780
:10170800E1FA36E07B681B681C4A934218D07B6874
:101718001B681B4A934213D07B681B68194A934283
:101728000ED07B681B68184A934209D07B681B68F7
:10173800164A934204D07B681B68154A934218D115
:10174800FB78032B06D17B681B6840211846FFF7FE
:10175800B9FA0EE0FB78042B0BD17B681B681021CB
:101768001846FFF7AFFA7B681B6840211846FFF759
:10177800A9FA00BF0837BD4680BD00BF002C014054
:10178800003401400040014000440140004801404D
:101798000050014080B582B000AF78600B46FB7006
:1017A800FB78022B06D17B681B6810211846FFF7CF
:1017B8009AFA36E07B681B681C4A934218D07B680B
:1017C8001B681B4A934213D07B681B68194A9342D3
:1017D8000ED07B681B68184A934209D07B681B6847
:1017E800164A934204D07B681B68154A934218D165
:1017F800FB78032B06D17B681B6840211846FFF74E
:1018080072FA0EE0FB78042B0BD17B681B68102161
:101818001846FFF768FA7B681B6840211846FFF7EF
:1018280062FA00BF0837BD4680BD00BF002C0140EA
:10183800003401400040014000440140004801409C
:101848000050014080B582B000AF78600B46FB7055
:10185800FB78022B07D17B681B684FF48051184630
:10186800FFF730FA39E07B681B681E4A934218D0AC
:101878007B681B681C4A934213D07B681B681B4A11
:1018880093420ED07B681B68194A934209D07B6843
:101898001B68184A934204D07B681B68164A934217
:1018A8001BD1FB78032B07D17B681B684FF4804161
:1018B8001846FFF707FA10E0FB78042B0DD17B6878
:1018C8001B684FF480511846FFF7FCF97B681B68CA
:1018D8004FF480411846FFF7F5F900BF0837BD46B9
:1018E80080BD00BF002C0140003401400040014091
:1018F80000440140004801400050014080B582B0DA
:1019080000AF78600B46FB70FB78022B07D17B6831
:101918001B684FF480511846FFF7E5F939E07B68FA
:101928001B681E4A934218D07B681B681C4A934266
:1019380013D07B681B681B4A93420ED07B681B68D8
:10194800194A934209D07B681B68184A934204D00D
:101958007B681B68164A93421BD1FB78032B07D17F
:101968007B681B684FF480411846FFF7BCF910E00C
:10197800FB78042B0DD17B681B684FF48051184607
:10198800FFF7B1F97B681B684FF480411846FFF7F1
:10199800AAF900BF0837BD4680BD00BF002C014032
:1019A800003401400040014000440140004801402B
:1019B8000050014080B584B000AF78600023FB6020
:1019C8007B681B683C4A934202D13C4BFB6006E0B3
:1019D8007B681B683A4A934201D13A4BFB607B68AB
:1019E8001A68FB681A60FB681B681846FFF746F917
:1019F800B860BB68002B06D0BB68102B03D0FB680F
:101A080001221A7102E0FB6800221A71FB681B6848
:101A18002D4A934218D0FB681B682C4A934213D076
:101A2800FB681B682A4A93420ED0FB681B68294A48
:101A3800934209D0FB681B68274A934204D0FB688D
:101A48001B68264A934204D1FB681B681846FFF7B7
:101A58005CF9FB681B681C4A934218D0FB681B683A
:101A68001A4A934213D0FB681B68194A93420ED056
:101A7800FB681B68174A934209D0FB681B68164A23
:101A8800934204D0FB681B68144A934208D17B68D0
:101A98001B681846FFF70AF90346DAB2FB685A7161
:101AA800FB6800229A71FB680022DA71FB6818460D
:101AB8001037BD4680BD00BF000400407C000020F8
:101AC8000008004008010020002C014000340140BB
:101AD80000400140004401400048014000500140DE
:101AE80080B485B000AF786039607B68FB60074AD6
:101AF8003B6813441B781A46FB6813445B689BB227
:101B080018461437BD465DF8047B7047CCB500080D
:101B180080B485B000AF786039607B685B6B3A68E9
:101B28001344FB607B685A6B7B689B6B9A4204D2B8
:101B38007B689B6BFA689A4212D27B685A6B7B6807
:101B48009B6B9A420ED37B689B6AFA689A4209D3C8
:101B58007B689B6AFA68D21A7B689B6B9A4201D3AE
:101B6800012300E00023DBB218461437BD465DF8B8
:101B7800047B704780B586B000AFF860B9607A60C2
:101B88003B607968F868FFF7C3FF0346002B21D054
:101B98003B68002B1CD007F0FDFF786100BF796817
:101BA800F868FFF7B5FF0346002B07D001217869D5
:101BB80005F04CFF02463B689342F0D20121786958
:101BC80005F044FF02463B68934203D2012347E0F5
:101BD800012345E0FB685A6B7B681A44FB689B6AE3
:101BE8009A4223D9FB689A6AFB685B6BD31A3B61FC
:101BF800FB681A6AFB685B6B13443A69B968184654
:101C080009F07AFCFB685A6B7B681A44FB689B6A8C
:101C1800D21AFB685A63FB68186A3B69BA68D1181C
:101C2800FB685B6B1A4609F067FC0FE0FB681A6AF1
:101C3800FB685B6B13447A68B968184609F05CFC6A
:101C4800FB685A6B7B681A44FB685A63FB685A6BDB
:101C5800FB689B6A9A4202D1FB6800225A63002300
:101C680018461837BD4680BD80B586B000AF78608D
:101C78007B6893F83C30FB737B689B7D03F004031F
:101C8800002B03D07B681B6B7B610DE07B685A6877
:101C98007B681B7C19461046FFF722FFB8607B68FB
:101CA8005A6ABB68D31A7B617B685B6A7A699A4215
:101CB80001D100237B61FB7B012B14D17B689B7DC9
:101CC80003F01003002B0ED07B68DB6A7A699A4216
:101CD80009D97B681B8B43F020039AB27B681A836F
:101CE8007B687A69DA627B68DB6A7A699A4205D925
:101CF8007B68DB6A7A69D31A3B6116E07B68DB6A2A
:101D08007A699A4208D27B685A6A7B68DB6AD31A76
:101D18007A6913443B6108E0FB7B012B03D17B68A4
:101D28005B6A3B6101E000233B613B691846183759
:101D3800BD4680BD80B588B000AFF860B9607A60F4
:101D48000023BB61F868FFF78FFF0246BB68934228
:101D580015D97B68002B12D007F01CFF786100BFF3
:101D6800F868FFF781FF0246BB68934207D9012153
:101D7800786905F06BFE02467B689342F0D2F868FA
:101D8800FFF772FFB861BA69BB689A4202D2BB69B1
:101D9800FB6101E0BB68FB61FB6918462037BD4663
:101DA80080BD000080B586B000AFF860B9607A6089
:101DB8003B603B6800221A600023FB82FB68DA6AFA
:101DC8007B681A44FB685B6A9A4227D9FB685A6A9F
:101DD800FB68DB6AD31A3B61FB68DA69FB68DB6A7C
:101DE80013443A691946B86809F086FBFB68DA6A51
:101DF8007B681A44FB685B6AD21AFB68DA623B6943
:101E0800BA68D018FB68D969FB68DB6A1A4609F01A
:101E180073FBFB68002283F83C200FE0FB68DA695B
:101E2800FB68DB6A13447A681946B86809F064FBF2
:101E3800FB68DA6A7B681A44FB68DA62FB68DA6A6C
:101E4800FB685B6A9A4206D1FB680022DA62FB688B
:101E5800002283F83C20FB681B68084A934204D19F
:101E6800F86800F0C1FD0346FB823B687A681A6097
:101E7800FB8A18461837BD4680BD00BF0080004069
:101E880080B400AF044BDB681B0A03F00703184655
:101E9800BD465DF8047B704700ED00E080B483B078
:101EA80000AF0346FB7197F90730002B0BDBFB797A
:101EB80003F01F02074997F907305B09012000FA70
:101EC80002F241F8232000BF0C37BD465DF8047BC1
:101ED800704700BF00E100E080B483B000AF034664
:101EE8003960FB7197F90730002B0ADB3B68DAB2DF
:101EF8000C4997F907301201D2B20B4483F800233A
:101F08000AE03B68DAB20849FB7903F00F03043BA7
:101F18001201D2B20B441A7600BF0C37BD465DF8E9
:101F2800047B704700E100E000ED00E080B489B078
:101F380000AFF860B9607A60FB6803F00703FB61E3
:101F4800FB69C3F10703042B28BF0423BB61FB69AA
:101F58000433062B02D9FB69033B00E000237B61B5
:101F68004FF0FF32BB6902FA03F3DA43BB681A4049
:101F78007B699A404FF0FF317B6901FA03F3D9433B
:101F88007B680B40134318462437BD465DF8047B35
:101F98007047000080B485B000AF786039607B6816
:101FA800FB600C4A3B6813441B781A46FB681344D1
:101FB8001B6808493A680A4412781146FA680A44C4
:101FC80043F00103136000BF1437BD465DF8047B7E
:101FD800704700BFD4B5000880B487B000AFF86080
:101FE800B9607A60FB687B610D4ABB6813441B7853
:101FF8001A467B6913445B681B0C1B040849BA68C2
:102008000A44127811467A690A4411467A681343D9
:102018004B6000BF1C37BD465DF8047B704700BFAE
:10202800D4B5000880B487B000AFF860B9607A60B2
:102038003B60FB687B613B6A102B14D1174ABB6875
:1020480013441B781A467B6913441A467B68D3608D
:10205800124ABB6813441B781A467B6913441A4614
:102068003B68936013E00D4ABB6813441B781A461B
:102078007B6913441A467B689360084ABB6813441B
:102088001B781A467B6913441A463B68D36000BF25
:102098001C37BD465DF8047B704700BFD4B5000807
:1020A80080B485B000AF786039607B68FB600C4A0B
:1020B8003B6813441B781A46FB6813441B6808499D
:1020C8003A680A4412781146FA680A4443F002034F
:1020D800136000BF1437BD465DF8047B704700BF2E
:1020E800D4B5000880B485B000AF786039607B68EB
:1020F800FB600C4A3B6813441B781A46FB68134480
:102108001B6808493A680A4412781146FA680A4472
:1021180023F00203136000BF1437BD465DF8047B4B
:10212800704700BFD4B5000880B483B000AF7860B2
:102138007B681B6843F001027B681A6000BF0C379C
:10214800BD465DF8047B704780B483B000AF78600B
:102158007B681B6823F001027B681A6000BF0C379C
:10216800BD465DF8047B704780B483B000AF7860EB
:102178007B681B6803F00103012B01D1012300E0F8
:10218800002318460C37BD465DF8047B704780B4C1
:1021980083B000AF78607B68DB6903F00103012B33
:1021A80001D1012300E0002318460C37BD465DF835
:1021B800047B704780B483B000AF78607B68DB69CC
:1021C80003F00203022B01D1012300E0002318468B
:1021D8000C37BD465DF8047B704780B483B000AF10
:1021E80078607B68DB6903F00403042B01D10123C9
:1021F80000E0002318460C37BD465DF8047B7047A5
:1022080080B483B000AF78607B68DB6903F00803B3
:10221800082B01D1012300E0002318460C37BD46E6
:102228005DF8047B704780B483B000AF78607B684A
:10223800DB6903F02003202B01D1012300E00023F8
:1022480018460C37BD465DF8047B704780B483B0F0
:1022580000AF78607B68DB6903F08003802B01D1D5
:10226800012300E0002318460C37BD465DF8047BC7
:10227800704780B483B000AF78607B6801221A622F
:1022880000BF0C37BD465DF8047B704780B483B04F
:1022980000AF78607B6802221A6200BF0C37BD4627
:1022A8005DF8047B704780B483B000AF78607B68CA
:1022B80004221A6200BF0C37BD465DF8047B7047E4
:1022C80080B483B000AF78607B6808221A6200BFD0
:1022D8000C37BD465DF8047B704780B489B000AF09
:1022E80078607B68FB60FB6853E8003FBB60BB68B5
:1022F80043F02003FB617B68FA69BA617B61796905
:10230800BA6941E800233B613B69002BE9D100BF72
:1023180000BF2437BD465DF8047B704780B489B0A0
:1023280000AF78607B68FB60FB6853E8003FBB60E8
:10233800BB6843F08003FB617B68FA69BA617B6123
:102348007969BA6941E800233B613B69002BE9D10F
:1023580000BF00BF2437BD465DF8047B704780B4DA
:1023680089B000AF78607B68FB60FB6853E8003F8A
:10237800BB60BB6843F48073FB617B68FA69BA6130
:102388007B617969BA6941E800233B613B69002BAD
:10239800E9D100BF00BF2437BD465DF8047B704714
:1023A80080B489B000AF78607B680833FB60FB6855
:1023B80053E8003FBB60BB6843F00103FB617B68E7
:1023C8000833FA69BA617B617969BA6941E800231F
:1023D8003B613B69002BE7D100BF00BF2437BD46F6
:1023E8005DF8047B704780B489B000AF78607B6883
:1023F800FB60FB6853E8003FBB60BB6823F0200329
:10240800FB617B68FA69BA617B617969BA6941E8FD
:1024180000233B613B69002BE9D100BF00BF243793
:10242800BD465DF8047B704780B489B000AF786022
:102438007B68FB60FB6853E8003FBB60BB6823F028
:102448008003FB617B68FA69BA617B617969BA6963
:1024580041E800233B613B69002BE9D100BF00BF85
:102468002437BD465DF8047B704780B489B000AF5F
:1024780078607B68FB60FB6853E8003FBB60BB6823
:1024880023F48073FB617B68FA69BA617B617969BF
:10249800BA6941E800233B613B69002BE9D100BFE1
:1024A80000BF2437BD465DF8047B704780B489B00F
:1024B80000AF78607B680833FB60FB6853E8003F37
:1024C800BB60BB6823F00103FB617B680833FA69D2
:1024D800BA617B617969BA6941E800233B613B696C
:1024E800002BE7D100BF00BF2437BD465DF8047B51
:1024F800704780B489B000AF78607B680833FB60B0
:10250800FB6853E8003FBB60BB6843F04003FB61D6
:102518007B680833FA69BA617B617969BA6941E80D
:1025280000233B613B69002BE7D100BF00BF243784
:10253800BD465DF8047B704780B489B000AF786011
:102548007B680833FB60FB6853E8003FBB60BB68EF
:1025580023F04003FB617B680833FA69BA617B6149
:102568007969BA6941E800233B613B69002BE7D1EF
:1025780000BF00BF2437BD465DF8047B704780B4B8
:1025880089B000AF78607B680833FB60FB6853E86C
:10259800003FBB60BB6843F08003FB617B68083386
:1025A800FA69BA617B617969BA6941E800233B61DC
:1025B8003B69002BE7D100BF00BF2437BD465DF85B
:1025C800047B704780B489B000AF78607B680833BB
:1025D800FB60FB6853E8003FBB60BB6823F08003E7
:1025E800FB617B680833FA69BA617B617969BA690A
:1025F80041E800233B613B69002BE7D100BF00BFE6
:102608002437BD465DF8047B704780B485B000AFC1
:10261800786039603B68002B03D17B682833FB6006
:1026280002E07B682433FB60FB6818461437BD461C
:102638005DF8047B704780B483B000AF78607B6836
:102648005B6ADBB218460C37BD465DF8047B704701
:1026580080B483B000AF78600B46FB70FA787B6873
:102668009A6200BF0C37BD465DF8047B704790B591
:1026780085B000AF78607B681B681846FFF7D3FD0C
:102688000346DBB2002B08D17B681B681846FFF7AE
:10269800B7FD0346DBB2002B01D0012300E0002385
:1026A800FB73FB7B012B42D17B6893F83C30012BF9
:1026B8001AD17B681A6B7B68DB6A9A4214D17B68F3
:1026C800DB6A5A1C7B68DA627B68DA6A7B685B6A59
:1026D8009A4202D17B680022DA627B681B8B43F046
:1026E80020039AB27B681A83786800F025F87B6823
:1026F80019687B68DA697B681B6BD4180846FFF792
:102708009AFF034623707B681B6B5A1C7B685B6AC5
:102718009A4207D17B6800221A637B68012283F8FA
:102728003C2004E07B681B6B5A1C7B681A63FB7BAC
:1027380018461437BD4690BD80B584B000AF7860A8
:102748000023FB737B681B681846FFF759FD034697
:10275800012B08D17B681B8B43F002039AB27B687C
:102768001A830123FB737B681B681846FFF722FD59
:102778000346012B08D17B681B8B43F008039AB2F0
:102788007B681A830123FB737B681B681846FFF775
:1027980024FD0346012B08D17B681B8B43F01003F3
:1027A8009AB27B681A830123FB737B681B681846FF
:1027B800FFF7EDFC0346012B08D17B681B8B43F028
:1027C80004039AB27B681A830123FB73FB7B012BFA
:1027D80028D17B681B7D012B10D17B689B7D03F082
:1027E8000403002B05D07B681B681846FFF7FBFD28
:1027F80004E07B681B681846FFF79EFE7B681B6831
:102808001846FFF736FD7B681B681846FFF758FD2A
:102818007B681B681846FFF739FD7B681B681846FC
:10282800FFF741FD00BF1037BD4680BD80B584B0BD
:1028380000AF78607B681B681846FFF707FD034602
:10284800FB73FB7B012B29D17B689A6B7B685B6BE5
:102858009A421BD07B6818687B681A6A7B689B6BF6
:1028680013441B781946FFF7F3FE7B689B6B5A1CD1
:102878007B689B6A9A4203D17B6800229A630DE0C9
:102888007B689B6B5A1C7B689A6307E07B681B68B4
:102898001846FFF7C9FD7B6800229A74FB7B18462F
:1028A8001037BD4680BD000080B500AF0348FFF774
:1028B800DEFE0248FFF7BAFF00BF80BD940100208A
:1028C800B0B584B002AF78607B681B681846FFF724
:1028D8004BFC0346012B46D17B681B681846FFF763
:1028E80033FC7B685C687B681B7C1D467B681B68C7
:1028F80001211846FFF789FE02467B68DB69194605
:10290800002300930B4629462046FFF78BFB7B6884
:1029180058687B681B7C19467B685B6A1A46FFF718
:102928005BFB7B685A687B681B7C19461046FFF77F
:10293800B7FB7B681B681846FFF7DBFD7B681B68E5
:102948009A687B681B6842F040029A607B685A6804
:102958007B681B7C19461046FFF71CFB7B681B68CD
:102968001846FFF7E1FB00BF0837BD46B0BDF0B51C
:1029780085B002AF78607B681B681846FFF7F4FBE8
:102988000346012B2CD17B681B681846FFF7DCFB3C
:102998007B689C687B685B7C1D467B681B6A1E465F
:1029A8007B681B6800211846FFF72FFE034610229C
:1029B8000092324629462046FFF734FB7B689A6826
:1029C8007B685B7C19461046FFF76AFB7B681B68CF
:1029D8001846FFF7D4FD7B681B681846FFF7A4FB71
:1029E80000BF0C37BD46F0BD80B584B000AF78603D
:1029F8000023FB817B681B8B03F02003002B0AD08C
:102A0800FB8943F02003FB817B681B8B23F02003A9
:102A18009AB27B681A837B681B7D002B08D17B6880
:102A28001A8BFB891343FB817B6800221A833AE0E7
:102A38007B681B7D012B36D17868FFF715F90346B3
:102A4800002B30D17B681B8B002B2CD07B681A8B1A
:102A5800FB891343FB817B6800221A837B689B7D7B
:102A680003F00403002B0FD07B681B681846FFF7A0
:102A7800E2FD7B681B681846FFF722FC7B681B6831
:102A88001846FFF72AFC0EE07B681B681846FFF71C
:102A9800D2FD7B681B681846FFF712FC7B681B6831
:102AA8001846FFF726FDFB8918461037BD4680BD3E
:102AB80080B584B000AF78607B681B681A46564BB7
:102AC8009A4212D1554BFB60FFF7DAF90346002210
:102AD80000211846FFF72AFA034619465B20FFF73C
:102AE800FBF95B20FFF7DAF902E00023FB6000BF87
:102AF800FB68002B00F08B80FB685A7D7B685B7D50
:102B08001343DAB2FB685A75FB689A7D7B689B7D34
:102B18001343DAB2FB689A757B681A68FB681A6017
:102B2800FB6800221A83FB6800225A837B685B7D5E
:102B380003F00103002B3CD07B685A6AFB685A6299
:102B48007B68DA69FB68DA61FB680022DA62FB6895
:102B580000221A637B681A7DFB681A75FB680022DD
:102B680083F83C20FB689B7D03F01003002B15D0F5
:102B78007B685A68FB685A607B681A7CFB681A7421
:102B8800F868FFF79DFEFB681B681846FFF708FC0E
:102B9800FB681B681846FFF7E2FB0AE0FB689B7DB1
:102BA80003F00403002B04D0FB681B681846FFF7EA
:102BB80094FB7B685B7D03F00203002B27D07B68C6
:102BC8009A6AFB689A627B681A6AFB681A62FB68F1
:102BD80000225A63FB6800229A63FB6800229A74F9
:102BE800FB680022DA74FB689B7D03F02003002B4E
:102BF8000DD07B689A68FB689A607B685A7CFB6892
:102C08005A74FB680022DA60F868FFF7B0FEFB68C8
:102C180018461037BD4680BD008000409401002052
:102C280080B586B000AFF860B9607A603B603B68F9
:102C380000221A60FB685B8B03F48073002B02D0C0
:102C48004FF4807316E0FB685B8B43F480739AB291
:102C5800FB685A833B687A68B968F868FFF7A2F896
:102C68000346FB82FB685B8B23F480739AB2FB6894
:102C78005A83FB8A18461837BD4680BD80B584B094
:102C880000AFF860B9607A603B60BB6900221A60E7
:102C9800FB685B8B03F08003002B01D0802353E09B
:102CA8007B68002B4FD0FB685B8B43F080039AB2A4
:102CB800FB685A833B687A68B968F868FEF75AFF78
:102CC8000346012B08D1FB685B8B23F080039AB283
:102CD800FB685A83402337E0FB689B7C002B28D194
:102CE800FB681868FB681A6AFB689B6B13441B78BF
:102CF8001946FFF7ADFCFB689B6B5A1CFB689B6A87
:102D08009A4203D1FB6800229A6304E0FB689B6B3C
:102D18005A1CFB689A63FB689A6BFB685B6B9A4268
:102D280007D0FB6801229A74FB681B681846FFF7F6
:102D3800F5FABB697A681A60FB685B8B23F080033D
:102D48009AB2FB685A83002318461037BD4680BDE7
:102D580080B582B000AF78607B681B681846FFF7C3
:102D6800F3F97B689B7D03F02003002B0DD07B6873
:102D78009A687B685B7C19461046FFF7B3F97B6855
:102D88001B681846FFF71EFC0AE07B689B7D03F072
:102D98000803002B04D07B681B681846FFF744FB28
:102DA8007B689B7D03F01003002B17D07B681B68A2
:102DB8001846FFF77BFB7B681B681846FFF755FB37
:102DC8007B685A687B681B7C19461046FFF78AF9AE
:102DD8007B681B681846FFF7AFFB0AE07B689B7DA2
:102DE80003F00403002B04D07B681B681846FFF728
:102DF800FAFA00BF0837BD4680BD80B483B000AF83
:102E080078607B681B6843F001027B681A6000BF2A
:102E18000C37BD465DF8047B704780B483B000AFC3
:102E280078607B681B6823F001027B681A6000BF2A
:102E38000C37BD465DF8047B704780B483B000AFA3
:102E4800786039607B681B6823F004023B681A438A
:102E58007B681A6000BF0C37BD465DF8047B70477D
:102E680080B483B000AF78607B681B6803F004030C
:102E780018460C37BD465DF8047B704780B483B0B4
:102E880000AF78607B68DB6A18460C37BD465DF892
:102E9800047B704780B483B000AF786039607B688A
:102EA8003A681A6300BF0C37BD465DF8047B70476B
:102EB80080B483B000AF786039607B683A685A6341
:102EC80000BF0C37BD465DF8047B704780B483B003
:102ED80000AF786039607B683A689A6300BF0C3746
:102EE800BD465DF8047B704780B483B000AF78605E
:102EF80039607B683A681A6400BF0C37BD465DF8D4
:102F0800047B704780B483B000AF78607B685B6BEC
:102F180018460C37BD465DF8047B704780B483B013
:102F280000AF78607B689B6B18460C37BD465DF830
:102F3800047B704780B483B000AF78607B681B6CFB
:102F480018460C37BD465DF8047B704780B483B0E3
:102F580000AF78607B685B6943F001027B685A6167
:102F680000BF0C37BD465DF8047B704780B483B062
:102F780000AF78607B681B6918460C37BD465DF862
:102F8800047B704780B483B000AF786039607B6899
:102F98003A689A6100BF0C37BD465DF8047B7047FC
:102FA80080B483B000AF786039607B683A689A6211
:102FB80000BF0C37BD465DF8047B704780B584B010
:102FC80000AF786087ED000AD7ED007AF5EEC07A99
:102FD800F1EE10FA03D54FF000033B600AE0D7ED9D
:102FE800007A9FED167AF4EEC77AF1EE10FA01DD59
:102FF800134B3B607B681B681846FFF73FFFF86080
:103008007B681B79002B0CBF01230023DBB21A4617
:10301800FB68134407EE903AB8EE677AD7ED007A6A
:1030280027EE277ADFED056AC7EE267AFCEEE77A07
:1030380017EE903A18461037BD4680BD0000C842CA
:103048000000C84280B582B000AF786039607B6804
:103058001B681846FFF756FF02463B68934205D0A7
:103068007B681B6839681846FFF722FF00BF0837DE
:10307800BD4680BD80B582B000AF786039607B689E
:103088001B681846FFF74AFF02463B68934205D083
:103098007B681B6839681846FFF718FF00BF0837B8
:1030A800BD4680BD80B582B000AF786039607B686E
:1030B8001B681846FFF73EFF02463B68934205D05F
:1030C8007B681B6839681846FFF70EFF00BF083792
:1030D800BD4680BD80B584B000AF786087ED000A3A
:1030E80097ED000A7868FFF769FFF860F968786873
:1030F800FFF7A8FF00BF1037BD4680BD80B584B07C
:1031080000AF786087ED000A97ED000A7868FFF74E
:1031180055FFF860F9687868FFF7ACFF00BF103713
:10312800BD4680BD80B584B000AF786087ED000AE9
:1031380097ED000A7868FFF741FFF860F96878684A
:10314800FFF7B0FF00BF1037BD4680BD80B485B023
:1031580000AF78607B681B689A68074B1340FB6078
:10316800FB68062B0CBF01230023DBB2184614377B
:10317800BD465DF8047B70470700010080B584B048
:1031880000AF78600B46FB707B681B681846FFF73A
:1031980067FEF860FB78002B23D07B681B68374AF2
:1031A800934218D07B681B68354A934213D07B68DA
:1031B8001B68344A93420ED07B681B68324A93429C
:1031C80009D07B681B68314A934204D07B681B682E
:1031D8002F4A934205D17B681B6800211846FFF7E8
:1031E80059FEFB68042B11D07B681B680421184624
:1031F800FFF723FE7B681B681846FFF7A7FE7B686E
:103208001B68F9681846FFF718FE04E07B681B681E
:103218001846FFF79BFE7B681B681846FFF7EDFD15
:10322800FB78002B25D07B681B68144A934218D082
:103238007B681B68124A934213D07B681B68114A4B
:1032480093420ED07B681B680F4A934209D07B6873
:103258001B680E4A934204D07B681B680C4A934251
:1032680007D17B681A687B685B7919461046FFF7B7
:1032780011FE00BF1037BD4680BD00BF002C0140C5
:103288000034014000400140004401400048014032
:103298000050014080B582B000AF78607B681B6841
:1032A8001846FFF7BAFD00BF0837BD4680BD80B598
:1032B80084B000AF78603960142008F007F803463E
:1032C8001A467B681A607B681B68BB60BB68002273
:1032D8001A60BB683A68DA603B689B00184607F0DA
:1032E800F5FF03461A46BB685A60BB6800229A601D
:1032F800BB6801221A740023FB6009E0BB685A68A6
:10330800FB689B00134400221A60FB680133FB60D2
:10331800FA683B689A42F1DB00BF00BF1037BD4630
:1033280080BD80B586B000AF786039603B68002BFF
:1033380001DA00233B6001233B6100237B610CE041
:103348007B685A687B699B0013441A683B6902FBD7
:1033580003F33B617B6901337B617B68DB687A69D6
:103368009A42EDDB7B689B683A699A423ADD7B6852
:103378009B687B617B690F2B0DDC10237B610AE066
:103388007B69B3F1804F03DB6FF000437B6102E0A0
:103398007B695B007B617A693B699A42F0DB7B69F8
:1033A800184607F093FF0346FB607B681B68002BF9
:1033B8000FD07B681B683A681946F86808F09CF8D3
:1033C8007B681B7C002B04D07B681B68184607F0C1
:1033D80085FF7B68FA681A607B687A699A607B68FF
:1033E80001221A7400BF1837BD4680BD80B588B069
:1033F80000AFF860B9607A603B60BB6A5B681B68C5
:10340800BA6A52680432126802FB03F3BB61BB6AF2
:103418005B6801221A60FB685B6804331A68BB6842
:103428005B6804331B681344FB613B6804331A6808
:10343800FB691A44BB6A5B68043336321A60B9699F
:10344800B86AFFF76EFF0023BB610BE0BB6A1A681E
:10345800BB6913446549BA690A4412781A70BB6992
:103468000133BB61BB691E2BF0DDFB685B685B68E1
:103478007B617B69002B09DDBB6A1B6803F11F00B8
:10348800FB681B687A69194608F036F8BB6A1A683F
:10349800FB685B6804331B681F33134420221A70CF
:1034A800BB6A1A68FB685B6804331B6821331344E2
:1034B8000D221A70BB6A1A68FB685B6804331B68C4
:1034C8002033134443221A70BB6A1A68FB685B688E
:1034D80004331B68223313440A221A700023BB6189
:1034E80011E0BB6A1A68FB685B6804331968BB693A
:1034F8000B44233313443E49BA690A4412781A70BC
:10350800BB690133BB61BB690A2BEADDBB685B6839
:103518005B687B610023BB6112E0BB681A68BB690A
:103528001A44BB6A1968FB685B6804331868BB698E
:1035380003442E330B4412781A70BB690133BB6104
:10354800BA697B699A42E8DBBB6A1A68FB692E3361
:1035580013440D221A70BB6A1A68FB692F3313448F
:103568000A221A700023FB6116E0BB6A1A68FB681E
:103578005B6804331968FB691944BB685B680433EA
:103588001B680B44303313441A49FA690A44127809
:103598001A70FB690133FB61FB69052BE5DD3B68AC
:1035A80004331B687B610023FB6116E0FB697A68C2
:1035B8001A44BB6A1968FB685B6804331868FB69BE
:1035C8001844BB685B6804331B68034436330B44F8
:1035D80012781A70FB690133FB61FA697B699A42B8
:1035E800E4DB00BF00BF2037BD4680BDE0B5000862
:1035F80000B600080CB6000880B582B000AF78604D
:103608007B681B68002B1DD07B681B681B68002B20
:103618000AD07B681B681B7C002B05D07B681B6865
:103628001B68184607F05AFE7B681B685B681846DB
:1036380007F054FE7B681B68184607F04FFE7B684E
:1036480000221A6000BF0837BD4680BD90B58FB014
:1036580002AF07F1180302211846FFF728FE07F109
:10366800240302211846FFF722FE8E4BD3E95401AA
:103678004FF000024FF00003FDF7CEF90346002B90
:103688001ED0FF228849894807F0E6FE874B0022B2
:1036980083F8FF200023FB620BE0854AFB6A134492
:1036A8001978824AFB6A13440A461A70FB6A013386
:1036B800FB62FB6A052BF0DD7C4B00229A71B3E0BC
:1036C800784BD3E954014FF000027A4BFDF7A4F987
:1036D8000346002B1ED0FF227349744807F0BCFE36
:1036E800724B002283F8FF200023FB620BE0724A32
:1036F800FB6A134419786D4AFB6A13440A461A7028
:10370800FB6A0133FB62FB6A052BF0DD674B002285
:103718009A7189E06948FDF763FA0346FB62BB6961
:103728005B681B68BA6952680432126802FB03F3CB
:10373800BB62BB695B6801221A60BB695B680433C2
:10374800FA6A1A60BB69B96A1846FFF7EAFDBB69ED
:103758001B68FA6A5949184607F07EFE7B6A5B685F
:103768001B687A6A52680432126802FB03F3BB6270
:103778007B6A5B6801221A60BB695B6804331A685C
:103788007B6A5B6804331F321A607B6AB96A184621
:10379800FFF7C7FD0023FB620BE07B6A1A68FB6A30
:1037A80013444749FA6A0A4412781A70FB6A0133CB
:1037B800FB62FB6A1E2BF0DDBB695B685B68BB6262
:1037C800BB6A002B09DD7B6A1B6803F11F00BB691C
:1037D8001B68BA6A194607F08FFEFF223249334840
:1037E80007F03AFE314B002283F8FF207B6A5B68C2
:1037F80004331B68FF2B06DCBB695B6804331B685A
:103808001F33FB6201E0FF23FB62FB6A002B06DD2E
:103818007B6A1B68FA6A1946244807F06DFE234A3A
:10382800FB6A134400221A70204BD3E9CA014FF0F7
:103838000002244BFDF7F0F80346002B0AD1194B80
:10384800D3E958014FF000021E4BFDF7E5F8034697
:10385800002B1CD007F1100306221349184607F065
:10386800FBFD0023FB620CE0174AFB6A134419783E
:1038780007F11002FB6A13440A461A70FB6A013307
:10388800FB62FB6A052BEFDD0023BB7530E007F117
:10389800100306220449184607F0DEFD0023FB62E8
:1038A80021E000BF08050020C8B50008D8010020A5
:1038B80014B60008000022401CB60008A00800202A
:1038C80024B600080000F03F44B600088C4AFB6AA2
:1038D8001344197807F11002FB6A13440A461A7058
:1038E800FB6A0133FB62FB6A052BEFDD0023BB7526
:1038F8008448FDF775F90346FB6207F120030221AE
:103908001846FFF7D4FC3B6A5B681B683A6A526842
:103918000432126802FB03F3BB623B6A5B68012254
:103928001A603B6A5B680433FA6A1A603B6AB96AD0
:103938001846FFF7F6FC3B6A1B68FA6A7149184695
:1039480007F08AFD7048FDF74BF90346FB6207F163
:103958001C0302211846FFF7AAFCFB695B681B6879
:10396800FA6952680432126802FB03F3BB62FB690E
:103978005B6801221A60FB695B680433FA6A1A60A3
:10398800FB69B96A1846FFF7CCFCFB691B68FA6A41
:103998005D49184607F060FD07F110031846FDF76A
:1039A8001FF90346FB6201233B60FB6A7B60FA6AEE
:1039B80007F1100107F10803184607F04DFD386AB2
:1039C800F9697B6A3C4607F1080200932346FFF732
:1039D8000DFD07F11C031846FFF70EFE07F1200343
:1039E8001846FFF709FEBB695B681B68BA6952682D
:1039F8000432126802FB03F3BB62BB695B680122F5
:103A08001A607B6A5B6804331A68BB695B680433B5
:103A180004321A60BB69B96A1846FFF782FCBB69B1
:103A28001B680D221A70BB691B6801330A221A70C1
:103A38007B6A5B685B68BB62BB6A002B08DDBB699D
:103A48001B68981C7B6A1B68BA6A194607F054FD04
:103A5800BB691A687B6A5B6804331B6802331344CA
:103A68000D221A70BB691A687B6A5B6804331B688D
:103A7800033313440A221A70FF222449244807F00A
:103A8800EBFC214B002283F8FF22BB695B680433FF
:103A98001B68FF2B06DC7B6A5B6804331B680433F6
:103AA800FB6201E0FF23FB6207F124031846FFF7DE
:103AB800A3FD0023BB620EE0BB691A68BB6A13440E
:103AC8001978114ABB6A134403F500730A461A7041
:103AD800BB6A0133BB62BA6AFB6A9A42ECDB07F144
:103AE80018031846FFF788FD074AFB6A134403F5D5
:103AF800007300221A7000BF3437BD4690BD00BF66
:103B08004CB60008A0070020D8010020C8B500085E
:103B1800D8030020B0B586B000AF78604FF000023F
:103B28004FF00003C7E904237B685B685B68BB60F0
:103B380028494FF00002284BC1E962230023FB60AB
:103B480039E0F868FCF796FC4FF00002224BFCF7CE
:103B580045FB02460B461F49C1E962237B681C6886
:103B68001C4BD3E9622310461946FCF787FF03462E
:103B7800013B23441B781846FCF76CFC4FF000020D
:103B8800164BFCF729FB02460B4614461D464FF020
:103B98000002134BD7E90401FCF7D6FC02460B469A
:103BA80020462946FCF71AFB02460B46C7E90423C0
:103BB800FB680133FB60FA68BB689A42C1DBD7E94E
:103BC800042343EC172BB0EE470AF0EE670A1837C8
:103BD800BD46B0BD080500200000F03F0000484089
:103BE8000000244080B584B000AF78607868FFF7A3
:103BF80091FF87ED020BD7E9022343EC172BB0EEB8
:103C0800470AF0EE670A1037BD4680BD80B58AB016
:103C180000AF78609C4BD3E960014FF000029B4BEA
:103C2800FCF7FAFE0346002B44D07B681B68002B88
:103C380040D09748FCF7D4FF03467B6207F10C039A
:103C480002211846FFF733FBFB685B681B68FA68BC
:103C580052680432126802FB03F3FB61FB685B687D
:103C680001221A60FB685B6804337A6A1A60FB6891
:103C7800F9691846FFF755FBFB681B687A6A84499F
:103C8800184607F0E9FB002387F82330FB685B68D8
:103C980004331B68012B07D1FB681B681B780D2BAD
:103CA80002D1012387F8233007F10C031846FFF7E8
:103CB800A3FC02E0002387F8233007F11403022154
:103CC8001846FFF7F4FA07F1100302211846FFF728
:103CD800EEFA07F1180302211846FFF7E8FA002365
:103CE80087F8223097F82330002B00F0E1806948EC
:103CF800FCF776FF03467B627B695B681B687A6921
:103D080052680432126802FB03F3FB617B695B684B
:103D180001221A607B695B6804337A6A1A607B69DE
:103D2800F9691846FFF7FDFA7B691B687A6A5949F1
:103D3800184607F091FB7B691846FFF753FFB0EE72
:103D4800407AF0EE607A504B83ED547B5148FCF793
:103D580047FF03467B623B695B681B683A695268A8
:103D68000432126802FB03F3FB613B695B680122C2
:103D78001A603B695B6804337A6A1A603B69F969BF
:103D88001846FFF7CEFA3B691B687A6A414918461C
:103D980007F062FBFF224049404807F05DFB3A4BC1
:103DA800002283F897243B695B6804331B68FF2B68
:103DB80004DC3B695B685B687B6201E0FF237B6234
:103DC8007B6A002B06DD3B691B687A6A1946334813
:103DD80007F092FB2C4A7B6A134403F566730022B2
:103DE8001A70294BD3E956014FF000024FF0000337
:103DF800FCF712FE0346002B1AD0234B012283F84E
:103E0800A024214B072283F89F24FF22224924481B
:103E180007F022FB234B002283F8FF226622224967
:103E28001F4807F069FB1F4B002283F8662242E017
:103E3800154BD3E956014FF00002144BFCF7ECFD8B
:103E48000346002B1CD0104B012283F89F240E49F7
:103E58004FF000020D4BC1E96423FF220E491048C0
:103E680007F0FAFA0F4B002283F8FF226A220F4963
:103E78000B4807F041FB0B4B002283F86A221AE03B
:103E8800012387F8223016E0080500200000F03FE3
:103E9800D8020020A0060020C8B50008A00800200D
:103EA800D8030020D801002054B60008BCB600088A
:103EB800012387F8223097F82230002B00F0828007
:103EC8004A4BD3E960014FF000024FF00003FCF7C2
:103ED800A3FD0346002B39D07B681B68002B35D027
:103EE8004348FCF77DFE03467B62BB695B681B6841
:103EF800BA6952680432126802FB03F3FB61BB69BA
:103F08005B6801221A60BB695B6804337A6A1A60CD
:103F1800BB69F9691846FFF704FABB691B687A6A36
:103F28003349184607F098FA002387F82330BB690D
:103F38005B6804331B68012B0CD1BB691B681B78B9
:103F48000D2B07D1012387F8233003E0002387F8DE
:103F5800233000E000BF97F82330002B25D0234BF7
:103F6800052283F89F24FF222249234807F074FA88
:103F7800224B002283F8FF2200237B620DE0204AB7
:103F88007B6A134419781D4A7B6A134403F500734E
:103F98000A461A707B6A01337B627B6A3C2BEEDD32
:103FA800164B002283F83D220CE0FF2211491248EB
:103FB80007F052FA114B002283F8FF220F4B002220
:103FC80083F8002207F118031846FFF715FB07F1DD
:103FD80010031846FFF710FB07F114031846FFF704
:103FE8000BFB00BF2837BD4680BD00BF0805002079
:103FF800D8020020C8B50008D8030020D801002046
:1040080028B7000880B58AB000AF786007F10C03C4
:1040180002211846FFF74BF97B681B68002B35D047
:104028009E48FCF7DDFD03467B62FB685B681B6806
:10403800FA6852680432126802FB03F3FB61FB68FA
:104048005B6801221A60FB685B6804337A6A1A604D
:10405800FB68F9691846FFF764F9FB681B687A6A18
:104068008E49184607F0F8F9002387F82330FB68D3
:104078005B6804331B68012B0BD1FB681B681B783A
:10408800312B06D1012387F8233002E0002387F87B
:10409800233097F82330002B29D0814B002283F856
:1040A800A0247F4B0B2283F89F24FF227D497E4862
:1040B80007F0D2F97D4B002283F8FF2200237B62B0
:1040C8000DE07B4A7B6A13441978784A7B6A13446B
:1040D80003F500730A461A707B6A01337B627B6AB8
:1040E800282BEEDD714B002283F829226EE17B68D4
:1040F8001B68002B40D06948FCF772FD03467B62C1
:1041080007F1180302211846FFF7D1F8BB695B686D
:104118001B68BA6952680432126802FB03F3FB6138
:10412800BB695B6801221A60BB695B6804337A6A01
:104138001A60BB69F9691846FFF7F3F8BB691B6891
:104148007A6A5649184607F087F9002387F823301A
:10415800BB695B6804331B68012B07D1BB691B680B
:104168001B78332B02D1012387F8233007F118037A
:104178001846FFF741FA02E0002387F8233097F842
:104188002330002B29D0464B002283F8A024444B2F
:104198000D2283F89F24FF224249434807F05CF927
:1041A800424B002283F8FF2200237B620DE0414A44
:1041B8007B6A134419783D4A7B6A134403F50073FC
:1041C8000A461A707B6A01337B627B6A212BEEDD1B
:1041D800364B002283F82222F8E07B681B68002B0C
:1041E80040D02E48FCF7FCFC03467B6207F1140321
:1041F80002211846FFF75BF87B695B681B687A69E0
:1042080052680432126802FB03F3FB617B695B6846
:1042180001221A607B695B6804337A6A1A607B69D9
:10422800F9691846FFF77DF87B691B687A6A1B49AC
:10423800184607F011F9002387F823307B695B687B
:1042480004331B68012B07D17B691B681B78342B4F
:1042580002D1012387F8233007F114031846FFF72A
:10426800CBF902E0002387F8233097F82330002B9E
:1042780038D00B4B002283F8A024094B0F2283F877
:104288009F24FF220749084807F0E6F8074B002259
:1042980083F8FF2200237B621CE000BFD8020020C5
:1042A80008050020C8B50008D8030020D801002060
:1042B80068B7000894B70008494A7B6A134419781C
:1042C800484A7B6A134403F500730A461A707B6AEE
:1042D80001337B627B6A132BEEDD424B002283F8AD
:1042E800142273E07B681B68002B40D03E48FCF723
:1042F80077FC03467B6207F1100302211846FEF79C
:10430800D6FF3B695B681B683A69526804321268D9
:1043180002FB03F3FB613B695B6801221A603B699E
:104328005B6804337A6A1A603B69F9691846FEF7D4
:10433800F8FF3B691B687A6A2B49184607F08CF826
:10434800002387F823303B695B6804331B68012B23
:1043580007D13B691B681B78322B02D1012387F8F0
:10436800233007F110031846FFF746F902E000234F
:1043780087F8233097F82330002B1AD01B4B0022E4
:1043880083F8A024194B092283F89F24FF22184997
:10439800184807F061F8134B002283F8FF225122D6
:1043A8001549144807F0A8F80E4B002283F851224B
:1043B8000CE0FF220E490F4807F04EF8094B002287
:1043C80083F8FF22074B002283F8002207F10C0331
:1043D8001846FFF711F900BF2837BD4680BD00BF5A
:1043E800B8B70008D8010020D8020020080500202E
:1043F800C8B50008D8030020CCB7000880B586B03F
:1044080000AF78607868FFF785FB87ED020B4FF007
:1044180000024FF00003C7E904234FF00002164BD7
:10442800D7E90201FCF720FB0346002B09D04FF027
:104438000002124BD7E90201FCF7F8FA0346002BF9
:104448000AD14FF000024FF00003D7E90201FCF750
:10445800E3FA0346002B04D04FF00002084BC7E9EB
:104468000423D7E9042343EC172BB0EE470AF0EEF8
:10447800670A1837BD4680BD0000104000003F4065
:104488000000F03F80B588B000AFA348FCF7A8FB58
:104498000346FB613B4602211846FEF708FF3B68CE
:1044A8005B681B683A6852680432126802FB03F3BF
:1044B800BB613B685B6801221A603B685B68043338
:1044C800FA691A603B68B9691846FEF72AFF3B6823
:1044D8001B68FA699049184606F0BEFF8F48FCF73A
:1044E8007FFB0346FB6107F1100302211846FEF724
:1044F800DEFE3B695B681B683A69526804321268E1
:1045080002FB03F3BB613B695B6801221A603B69EC
:104518005B680433FA691A603B69B9691846FEF7A3
:1045280000FF3B691B68FA697C49184606F094FF4E
:1045380007F10C0302211846FEF7B9FEFB685B6819
:104548001B68FA6852680432126802FB03F3BB6105
:10455800FB685B6801221A603B685B6804331A6871
:104568003B695B6804331B681344FB61FB685B6849
:104578000433FA691A60FB68B9691846FEF7D1FE78
:104588003B685B685B687B617B69002B07DDFB68C8
:1045980018683B681B687A69194606F0ADFF3B69E5
:1045A8005B685B687B610023BB6111E03B691A684B
:1045B800BB691A44FB681B68396849680431086894
:1045C800B96901440B4412781A70BB690133BB61A5
:1045D800BA697B699A42E9DB07F110031846FFF7CD
:1045E8000BF83B461846FFF707F8FF224C494A48A4
:1045F80006F032FF4B4B002283F89722FB685B687A
:1046080004331B68FF2B01DDFF23FB61FB69002BD3
:1046180006DDFB681B68FA6919463F4806F06CFF1F
:1046280007F10C031846FEF7E7FF3E4AFB691344FF
:1046380003F5CC7300221A703848FCF7D1FA034608
:10464800FB6107F1080302211846FEF730FEBB683C
:104658005B681B68BA6852680432126802FB03F38D
:10466800BB61BB685B6801221A60BB685B68043386
:10467800FA691A60BB68B9691846FEF752FEBB684A
:104688001B68FA692549184606F0E6FEFF22244908
:10469800254806F0E1FE254B002283F8FF22BB687F
:1046A8005B6804331B68FF2B04DCBB685B685B68D2
:1046B800FB6101E0FF23FB61FB69002B06DDBB68A2
:1046C8001B68FA691946184806F016FF07F108032F
:1046D8001846FEF791FF154AFB69134403F500736A
:1046E80000221A700F4BD3E962014FF00002104B01
:1046F800FBF774FD02460B460A49C1E96223094BE0
:10470800D3E962014FF000024FF00003FCF7ACF967
:104718000346002B0ED151E0A0060020D80200204D
:10472800C8B5000808050020D8030020D8010020DB
:104738000000F03F234BD3E962014FF00002224B07
:10474800FCF774F90346002B00D137E01F48FCF74B
:1047580047FA0346FB613B1D02211846FEF7A7FDF9
:104768007B685B681B687A6852680432126802FBCF
:1047780003F3BB617B685B6801221A607B685B6836
:104788000433FA691A607B68B9691846FEF7C9FDEF
:104798007B681B68FA690D49184606F05DFE7B6860
:1047A8001846FFF72BFEB0EE407AF0EE607A054B24
:1047B80083ED5C7B3B1D1846FEF71EFF00BF2037CC
:1047C800BD4680BD0805002000000840A006002066
:1047D80080B58AB000AF78608D4BD3E95C014FF0AB
:1047E80000028C4BFCF718F90346002B44D07B6879
:1047F8001B68002B40D08848FCF7F2F903467B621F
:1048080007F10C0302211846FEF751FDFB685B68AF
:104818001B68FA6852680432126802FB03F3FB61F2
:10482800FB685B6801221A60FB685B6804337A6A7C
:104838001A60FB68F9691846FEF773FDFB681B6888
:104848007A6A7549184606F007FE002387F8233070
:10485800FB685B6804331B68012B07D1FB681B6886
:104868001B780D2B02D1012387F8233007F10C03A5
:104878001846FEF7C1FE02E0002387F8233007F14F
:10488800140302211846FEF712FD07F11003022156
:104898001846FEF70CFD07F1180302211846FEF72B
:1048A80006FD002387F8223097F82330002B00F00C
:1048B800C1805A48FCF794F903467B627B695B68C0
:1048C8001B687A6952680432126802FB03F3FB61C1
:1048D8007B695B6801221A607B695B6804337A6ACA
:1048E8001A607B69F9691846FEF71BFD7B691B682E
:1048F8007A6A4A49184606F0AFFD7B691846FFF701
:1049080071F9B0EE407AF0EE607A414B83ED527B5C
:104918004248FCF765F903467B623B695B681B68A4
:104928003A6952680432126802FB03F3FB613B697F
:104938005B6801221A603B695B6804337A6A1A6013
:104948003B69F9691846FEF7ECFC3B691B687A6A13
:104958003249184606F080FD2D4BD3E956014FF039
:1049680000024FF00003FCF757F80346002B1AD05B
:10497800274B012283F8A024254B072283F89F2484
:10498800FF222749274806F067FD274B002283F8B6
:10499800FF2266222549234806F0AEFD224B00225D
:1049A80083F8662249E01A4BD3E956014FF000021A
:1049B800184BFCF731F80346002B25D0144B0D2279
:1049C80083F89F24FF221649164806F045FD164B2A
:1049D800002283F8FF2200237B620DE0144A7B6AE1
:1049E80013441978104A7B6A134403F500730A4686
:1049F8001A707B6A01337B627B6A212BEEDD0A4BDE
:104A0800002283F8222218E0012387F8223014E0DC
:104A1800080500200000F03FD8020020A006002072
:104A2800C8B50008D8030020D801002020B8000825
:104A380088B80008012387F8223097F82230002B25
:104A480000F08D804F4BD3E95C014FF000024FF02E
:104A58000003FBF7E1FF0346002B39D07B681B6896
:104A6800002B35D04848FCF7BBF803467B62BB698E
:104A78005B681B68BA6952680432126802FB03F368
:104A8800FB61BB695B6801221A60BB695B68043320
:104A98007A6A1A60BB69F9691846FEF742FCBB6975
:104AA8001B687A6A3849184606F0D6FC002387F84E
:104AB8002330BB695B6804331B68012B0CD1BB69CD
:104AC8001B681B780D2B07D1012387F8233003E0DF
:104AD800002387F8233000E000BF97F82330002B2D
:104AE80025D0284B022283F89F24FF2227492848F3
:104AF80006F0B2FC274B002283F8FF2200237B62DA
:104B08000DE0254A7B6A13441978224A7B6A1344CC
:104B180003F500730A461A707B6A01337B627B6A6D
:104B28003E2BEEDD1B4B002283F83F2217E01B4B88
:104B38001B78002B06D0134B0A2283F89F24FFF71B
:104B4800A1FC0CE0FF221149114806F085FC114B2D
:104B5800002283F8FF220F4B002283F8002207F17E
:104B680018031846FEF748FD07F110031846FEF72C
:104B780043FD07F114031846FEF73EFD00BF283732
:104B8800BD4680BD08050020D8020020C8B5000831
:104B9800D8030020D8010020ACB80008C8090020BC
:104BA80080B586B000AF78607868FEF7B3FF87ED10
:104BB800020B4FF000024FF00003C7E904234FF047
:104BC8000002114BD7E90201FBF726FF0346002B31
:104BD8000AD14FF000024FF00003D7E90201FBF7BA
:104BE8001BFF0346002B04D04FF00002064BC7E919
:104BF8000423D7E9042343EC172BB0EE470AF0EE61
:104C0800670A1837BD4680BD0000F03F80B58AB0FE
:104C180000AF786007F1180302211846FEF747FB3A
:104C28007B681B68002B00F07C81FF228D498E4831
:104C380006F012FC8D4B002283F897228B4B002242
:104C480083F89821894B0C2283F89F248648FBF728
:104C5800C7FF03467B6207F1080302211846FEF7E7
:104C680026FBBB685B681B68BA6852680432126826
:104C780002FB03F3FB61BB685B6801221A60BB6837
:104C88005B6804337A6A1A60BB68F9691846FEF7EC
:104C980048FBBB681B687A6A7349184606F0DCFB58
:104CA8007348FBF79DFF03467B6207F1140302215B
:104CB8001846FEF7FCFA7B695B681B687A695268DC
:104CC8000432126802FB03F3FB617B695B68012213
:104CD8001A607B695B6804337A6A1A607B69F969D0
:104CE8001846FEF71EFB7B691B687A6A60491846FE
:104CF80006F0B2FBBB695B681B68BA69526804328C
:104D0800126802FB03F3FB61BB695B6801221A604E
:104D1800BB685B6804331A687B695B6804331B688B
:104D280013443B62BB695B6804333A6A1A60BB6927
:104D3800F9691846FEF7F5FABB685B685B68FB61C2
:104D4800FB69002B07DDBB691868BB681B68FA693B
:104D5800194606F0D1FB7B695B685B68FB61002341
:104D68007B6211E07B691A687B6A1A44BB691B681D
:104D7800B968496804310868796A01440B441278B3
:104D88001A707B6A01337B627A6AFB699A42E9DBB3
:104D980007F114031846FEF72FFC07F1080318461D
:104DA800FEF72AFCFF222F492F4806F055FB2F4B10
:104DB800002283F89722BB695B6804331B68FF2BCA
:104DC80001DDFF233B623B6A002B06DDBB691B68E4
:104DD8003A6A1946244806F08FFB244A3B6A134472
:104DE80003F5CC7300221A702148FBF7F9FE03463D
:104DF8007B6207F1100302211846FEF758FA3B6957
:104E08005B681B683A6952680432126802FB03F354
:104E1800FB613B695B6801221A603B695B6804338C
:104E28007A6A1A603B69F9691846FEF77AFA3B69AB
:104E38001B687A6A0E49184606F00EFBFF220949DC
:104E48000C4806F009FB0C4B002283F8FF223B6953
:104E58005B6804331B68FF2B10DC3B695B685B688D
:104E68003B620DE0C8B50008A00600200805002038
:104E7800D8020020D8030020D8010020FF233B627D
:104E88003B6A002B06DD3B691B683A6A19463048C5
:104E980006F032FB07F110031846FEF7ADFB2D4A6A
:104EA8003B6A134403F5007300221A702A48FBF783
:104EB80097FE03467B6207F10C0302211846FEF7B2
:104EC800F6F9FB685B681B68FA6852680432126876
:104ED80002FB03F3FB61FB685B6801221A60FB6855
:104EE8005B6804337A6A1A60FB68F9691846FEF74A
:104EF80018FAFB681B687A6A1749184606F0ACFA74
:104F0800FB681846FFF74CFEB0EE407AF0EE607A88
:104F1800124B83ED5A7B07F10C031846FEF76CFB26
:104F28000CE0FF220E490A4806F096FA094B0022C7
:104F380083F8FF22074B002283F8002207F11803A9
:104F48001846FEF759FB00BF2837BD4680BD00BF95
:104F5800D8030020D8010020A00600200805002062
:104F6800C8B5000880B588B000AF78609D4BD3E91C
:104F78005A014FF000029C4BFBF74EFD0346002BF5
:104F880042D07B681B68002B3ED09848FBF728FE70
:104F98000346BB6107F1080302211846FEF787F9AB
:104FA800BB685B681B68BA6852680432126802FB07
:104FB80003F37B61BB685B6801221A60BB685B68AE
:104FC8000433BA691A60BB6879691846FEF7A9F90B
:104FD800BB681B68BA698549184606F03DFA002384
:104FE800FB77BB685B6804331B68012B06D1BB6881
:104FF8001B681B780D2B01D10123FB7707F10803F0
:105008001846FEF7F9FA01E00023FB7707F11003D1
:1050180002211846FEF74BF9FB7F002B00F09B801E
:105028007348FBF7DDFD0346BB613B695B681B68A2
:105038003A6952680432126802FB03F37B613B69E8
:105048005B6801221A603B695B680433BA691A60BD
:105058003B6979691846FEF764F93B691B68BA69C8
:105068006349184606F0F8F93B691846FEF7BAFD99
:10507800B0EE407AF0EE607A5A4B83ED587B5C488C
:10508800FBF7AEFD0346BB6107F10C03022118468E
:10509800FEF70DF9FB685B681B68FA685268043212
:1050A800126802FB03F37B61FB685B6801221A60EC
:1050B800FB685B680433BA691A60FB68796918464B
:1050C800FEF72FF9FB681B68BA694949184606F0CC
:1050D800C3F907F10C031846FEF78EFA414BD3E9E2
:1050E80056014FF00002404BFBF796FC0346002B9D
:1050F80016D03C4B092283F89F24FF223D493E48A5
:1051080006F0AAF93D4B002283F8FF2251223C49C0
:10511800394806F0F1F9394B002283F851229BE017
:10512800304B012283F8A0242E4B072283F89F24BA
:10513800FF223049304806F08FF9304B002283F8BF
:10514800FF2266222F492C4806F0D6F92B4B002265
:1051580083F8662280E0234BD3E95A014FF000021E
:105168004FF00003FBF758FC0346002B37D07B6851
:105178001B68002B33D01D48FBF732FD0346BB618B
:105188003B695B681B683A6952680432126802FB23
:1051980003F37B613B695B6801221A603B695B68CA
:1051A8000433BA691A603B6979691846FEF7B9F899
:1051B8003B691B68BA690D49184606F04DF900238A
:1051C800FB773B695B6804331B68012B1CD13B6987
:1051D8001B681B780D2B17D10123FB7714E00023E4
:1051E800FB7712E0080500200000F03FD8020020FD
:1051F800A0060020C8B50008D8030020D801002068
:10520800ECB8000840B9000800BFFB7F002B16D09F
:10521800164B032283F89F24FF221549154806F0F0
:105228001BF9154B002283F8FF224122134911482C
:1052380006F062F9104B002283F841220CE0FF22AD
:105248000B490C4806F008F90B4B002283F8FF22A3
:10525800094B002283F8002207F110031846FEF7D5
:10526800CBF900BF2037BD4680BD00BF0805002030
:10527800C8B50008D8030020D8010020A8B9000844
:1052880080B586B000AF78607868FEF743FC87ED9C
:10529800020B4FF000024FF00003C7E904234FF060
:1052A8000002114BD7E90201FBF7DEFB0346002B96
:1052B8000ED04FF000020D4BD7E90201FBF7B6FB09
:1052C8000346002B04D04FF00002094BC7E9042322
:1052D800D7E9042343EC172BB0EE470AF0EE670A30
:1052E8001837BD4680BD00BF00002E4000003F407B
:1052F8000000F03F80B588B000AFA348FBF770FC12
:105308000346FB613B4602211846FDF7D0FF3B6888
:105318005B681B683A6852680432126802FB03F340
:10532800BB613B685B6801221A603B685B680433B9
:10533800FA691A603B68B9691846FDF7F2FF3B68DD
:105348001B68FA699049184606F086F88F48FBF7FB
:1053580047FC0346FB6107F1100302211846FDF7DD
:10536800A6FF3B695B681B683A6952680432126899
:1053780002FB03F3BB613B695B6801221A603B696E
:105388005B680433FA691A603B69B9691846FDF726
:10539800C8FF3B691B68FA697C49184606F05CF847
:1053A80007F10C0302211846FDF781FFFB685B68D3
:1053B8001B68FA6852680432126802FB03F3BB6187
:1053C800FB685B6801221A603B685B6804331A68F3
:1053D8003B695B6804331B681344FB61FB685B68CB
:1053E8000433FA691A60FB68B9691846FDF799FF32
:1053F8003B685B685B687B617B69002B07DDFB684A
:1054080018683B681B687A69194606F075F83B69A5
:105418005B685B687B610023BB6111E03B691A68CC
:10542800BB691A44FB681B68396849680431086815
:10543800B96901440B4412781A70BB690133BB6126
:10544800BA697B699A42E9DB07F110031846FEF74F
:10545800D3F83B461846FEF7CFF8FF224C494A4896
:1054680005F0FAFF4B4B002283F89722FB685B6834
:1054780004331B68FF2B01DDFF23FB61FB69002B55
:1054880006DDFB681B68FA6919463F4806F034F8E0
:1054980007F10C031846FEF7AFF83E4AFB691344C0
:1054A80003F5CC7300221A703848FBF799FB0346C2
:1054B800FB6107F1080302211846FDF7F8FEBB68F7
:1054C8005B681B68BA6852680432126802FB03F30F
:1054D800BB61BB685B6801221A60BB685B68043308
:1054E800FA691A60BB68B9691846FDF71AFFBB6804
:1054F8001B68FA692549184605F0AEFFFF222449C2
:10550800254805F0A9FF254B002283F8FF22BB6838
:105518005B6804331B68FF2B04DCBB685B685B6853
:10552800FB6101E0FF23FB61FB69002B06DDBB6823
:105538001B68FA691946184805F0DEFF07F10803E9
:105548001846FEF759F8154AFB69134403F500732A
:1055580000221A700F4BD3E962014FF00002104B82
:10556800FAF73CFE02460B460A49C1E96223094B99
:10557800D3E962014FF000024FF08043FBF74CFA89
:105588000346002B0ED145E0A0060020D8020020DB
:10559800C8B5000808050020D8030020D80100205D
:1055A8000000F03F1D48FBF71BFB0346FB613B1D5A
:1055B80002211846FDF77BFE7B685B681B687A68EA
:1055C80052680432126802FB03F3BB617B685B68B4
:1055D80001221A607B685B680433FA691A607B6889
:1055E800B9691846FDF79DFE7B681B68FA690B4987
:1055F800184605F031FF7B681846FFF741FEB0EE0C
:10560800407AF0EE607A064B83ED5E7B3B1D1846D0
:10561800FDF7F2FF00BF2037BD4680BDA006002081
:105628000805002080B58AB000AF7860A54BD3E9A3
:105638005E014FF000024FF00003FBF7EDF903465F
:10564800002B44D07B681B68002B40D09E48FBF79A
:10565800C7FA03467B6207F10C0302211846FDF7DF
:1056680026FEFB685B681B68FA6852680432126899
:1056780002FB03F3FB61FB685B6801221A60FB68AD
:105688005B6804337A6A1A60FB68F9691846FDF7A3
:1056980048FEFB681B687A6A8B49184605F0DCFEF1
:1056A800002387F82330FB685B6804331B68012BF1
:1056B80007D1FB681B681B780D2B02D1012387F8E3
:1056C800233007F10C031846FDF796FF02E000238C
:1056D80087F8233097F82330002B25D0794B042204
:1056E80083F89F24FF227949794805F0B5FE794B64
:1056F800002283F8FF2200237B620DE0764A7B6A52
:1057080013441978734A7B6A134403F500730A46F5
:105718001A707B6A01337B627B6A3E2BEEDD6D4B30
:10572800002283F83F2277E1664BD3E95E014FF010
:1057380000026A4BFBF770F90346002B44D07B68E4
:105748001B68002B40D06048FBF74AFA03467B628F
:1057580007F1180302211846FDF7A9FDBB695B682C
:105768001B68BA6952680432126802FB03F3FB61D2
:10577800BB695B6801221A60BB695B6804337A6A9B
:105788001A60BB69F9691846FDF7CBFDBB691B6850
:105798007A6A4D49184605F05FFE002387F82330E2
:1057A800BB695B6804331B68012B07D1BB691B68A5
:1057B8001B780D2B02D1012387F8233007F118033A
:1057C8001846FDF719FF02E0002387F8233007F198
:1057D800140302211846FDF76AFD07F110030221A0
:1057E8001846FDF764FD002387F8223097F8233028
:1057F800002B00F0E8803A48FBF7F2F903467B6299
:105808007B695B681B687A6952680432126802FB1C
:1058180003F3FB617B695B6801221A607B695B6843
:1058280004337A6A1A607B69F9691846FDF779FDCD
:105838007B691B687A6A2A49184605F00DFE7B6960
:105848001846FEF7CFF9B0EE407AF0EE607A1D4BBD
:1058580083ED507B2248FBF7C3F903467B623B6923
:105868005B681B683A6952680432126802FB03F3EA
:10587800FB613B695B6801221A603B695B68043322
:105888007A6A1A603B69F9691846FDF74AFD3B696F
:105898001B687A6A1249184605F0DEFDFF220B499B
:1058A800104805F0D9FD074B002283F897233B6980
:1058B8005B6804331B68FF2B16DC3B695B685B681D
:1058C8007B6213E008050020D8020020C8B5000854
:1058D800D8030020D8010020ECB900080000F03FF0
:1058E800A0060020A0070020FF237B627B6A002B14
:1058F80006DD3B691B687A6A1946494805F0FCFDD4
:10590800484A7B6A134403F5267300221A70454BF4
:10591800D3E956014FF000024FF00003FBF77CF883
:105928000346002B1AD03F4B012283F8A0243D4B9D
:10593800072283F89F24FF223B493C4805F08CFD51
:105948003B4B002283F8FF2266223A49374805F08C
:10595800D3FD374B002283F8662237E0314BD3E979
:1059680056014FF00002344BFBF756F80346002B64
:1059780025D02C4B0F2283F89F24FF222A492B483D
:1059880005F06AFD2A4B002283F8FF2200237B6280
:105998000DE02A4A7B6A13441978254A7B6A134426
:1059A80003F500730A461A707B6A01337B627B6ACF
:1059B800132BEEDD1E4B002283F8142206E0012390
:1059C80087F8223002E0012387F8223097F8223046
:1059D800002B17D01A4B1B78002B06D0114B0E2228
:1059E80083F89F24FFF786FC0CE0FF220E490F483E
:1059F80005F032FD0E4B002283F8FF220C4B0022EB
:105A080083F8002207F110031846FDF7F5FD07F1AA
:105A180014031846FDF7F0FD00BF2837BD4680BDCA
:105A2800A007002008050020C8B50008D8030020FA
:105A3800D80100202CBA00080000F03F94BA0008F2
:105A4800C909002080B586B000AF78607868FEF795
:105A580061F887ED020B4FF000024FF00003C7E931
:105A680004234FF000020C4BD7E90201FAF7DEFFDE
:105A78000346002B04D04FF00002084BC7E904236B
:105A8800D7E9042343EC172BB0EE470AF0EE670A78
:105A98001837BD4680BD00BF000024400000F03F1D
:105AA80080B58AB000AF786007F118030221184664
:105AB800FDF7FDFB7B681B68002B00F07C81FF2253
:105AC8008D498E4805F0C8FC8D4B002283F897223B
